{
  "contractName": "salomoncoin",
  "abi": [
    {
      "inputs": [],
      "stateMutability": "nonpayable",
      "type": "constructor"
    },
    {
      "anonymous": false,
      "inputs": [
        {
          "indexed": true,
          "internalType": "address",
          "name": "tokenOwner",
          "type": "address"
        },
        {
          "indexed": true,
          "internalType": "bytes32",
          "name": "spender",
          "type": "bytes32"
        },
        {
          "indexed": false,
          "internalType": "uint256",
          "name": "tokens",
          "type": "uint256"
        }
      ],
      "name": "Approval",
      "type": "event"
    },
    {
      "anonymous": false,
      "inputs": [
        {
          "indexed": true,
          "internalType": "address",
          "name": "owner",
          "type": "address"
        },
        {
          "indexed": true,
          "internalType": "address",
          "name": "spender",
          "type": "address"
        },
        {
          "indexed": false,
          "internalType": "uint256",
          "name": "value",
          "type": "uint256"
        }
      ],
      "name": "Approval",
      "type": "event"
    },
    {
      "anonymous": false,
      "inputs": [
        {
          "indexed": true,
          "internalType": "address",
          "name": "from",
          "type": "address"
        },
        {
          "indexed": true,
          "internalType": "bytes32",
          "name": "to",
          "type": "bytes32"
        },
        {
          "indexed": false,
          "internalType": "uint256",
          "name": "tokens",
          "type": "uint256"
        }
      ],
      "name": "Transfer",
      "type": "event"
    },
    {
      "anonymous": false,
      "inputs": [
        {
          "indexed": true,
          "internalType": "address",
          "name": "from",
          "type": "address"
        },
        {
          "indexed": true,
          "internalType": "address",
          "name": "to",
          "type": "address"
        },
        {
          "indexed": false,
          "internalType": "uint256",
          "name": "value",
          "type": "uint256"
        }
      ],
      "name": "Transfer",
      "type": "event"
    },
    {
      "inputs": [],
      "name": "decimals",
      "outputs": [
        {
          "internalType": "uint8",
          "name": "",
          "type": "uint8"
        }
      ],
      "stateMutability": "view",
      "type": "function"
    },
    {
      "inputs": [],
      "name": "name",
      "outputs": [
        {
          "internalType": "string",
          "name": "",
          "type": "string"
        }
      ],
      "stateMutability": "view",
      "type": "function"
    },
    {
      "inputs": [],
      "name": "symbol",
      "outputs": [
        {
          "internalType": "string",
          "name": "",
          "type": "string"
        }
      ],
      "stateMutability": "view",
      "type": "function"
    },
    {
      "inputs": [],
      "name": "totalSupply",
      "outputs": [
        {
          "internalType": "uint256",
          "name": "",
          "type": "uint256"
        }
      ],
      "stateMutability": "view",
      "type": "function"
    },
    {
      "inputs": [],
      "name": "Ownable",
      "outputs": [
        {
          "internalType": "address",
          "name": "",
          "type": "address"
        }
      ],
      "stateMutability": "view",
      "type": "function"
    },
    {
      "inputs": [],
      "name": "Contractaddress",
      "outputs": [
        {
          "internalType": "address",
          "name": "",
          "type": "address"
        }
      ],
      "stateMutability": "view",
      "type": "function"
    },
    {
      "inputs": [
        {
          "internalType": "address",
          "name": "tokenOwner",
          "type": "address"
        }
      ],
      "name": "balanceOf",
      "outputs": [
        {
          "internalType": "uint256",
          "name": "",
          "type": "uint256"
        }
      ],
      "stateMutability": "view",
      "type": "function"
    },
    {
      "inputs": [
        {
          "internalType": "address",
          "name": "receiver",
          "type": "address"
        },
        {
          "internalType": "uint256",
          "name": "numTokens",
          "type": "uint256"
        }
      ],
      "name": "transfer",
      "outputs": [
        {
          "internalType": "bool",
          "name": "",
          "type": "bool"
        }
      ],
      "stateMutability": "nonpayable",
      "type": "function"
    },
    {
      "inputs": [
        {
          "internalType": "address",
          "name": "delegate",
          "type": "address"
        },
        {
          "internalType": "uint256",
          "name": "numTokens",
          "type": "uint256"
        }
      ],
      "name": "approve",
      "outputs": [
        {
          "internalType": "bool",
          "name": "",
          "type": "bool"
        }
      ],
      "stateMutability": "nonpayable",
      "type": "function"
    },
    {
      "inputs": [
        {
          "internalType": "address",
          "name": "owner",
          "type": "address"
        },
        {
          "internalType": "address",
          "name": "delegate",
          "type": "address"
        }
      ],
      "name": "allowance",
      "outputs": [
        {
          "internalType": "uint256",
          "name": "",
          "type": "uint256"
        }
      ],
      "stateMutability": "view",
      "type": "function"
    },
    {
      "inputs": [
        {
          "internalType": "address",
          "name": "owner",
          "type": "address"
        },
        {
          "internalType": "address",
          "name": "buyer",
          "type": "address"
        },
        {
          "internalType": "uint256",
          "name": "numTokens",
          "type": "uint256"
        }
      ],
      "name": "transferFrom",
      "outputs": [
        {
          "internalType": "bool",
          "name": "",
          "type": "bool"
        }
      ],
      "stateMutability": "nonpayable",
      "type": "function"
    }
  ],
  "bytecode": "0x608060405262200b2060025534801561001757600080fd5b506002546000803373ffffffffffffffffffffffffffffffffffffffff1673ffffffffffffffffffffffffffffffffffffffff16815260200190815260200160002081905550610ec38061006c6000396000f3fe608060405234801561001057600080fd5b50600436106100a95760003560e01c8063313ce56711610071578063313ce5671461016857806370a08231146101865780638afc3605146101b657806395d89b41146101d4578063a9059cbb146101f2578063dd62ed3e14610222576100a9565b806306fdde03146100ae578063095ea7b3146100cc57806316b2a1ac146100fc57806318160ddd1461011a57806323b872dd14610138575b600080fd5b6100b6610252565b6040516100c39190610b29565b60405180910390f35b6100e660048036038101906100e19190610be4565b61028b565b6040516100f39190610c3f565b60405180910390f35b61010461037d565b6040516101119190610c69565b60405180910390f35b610122610385565b60405161012f9190610c93565b60405180910390f35b610152600480360381019061014d9190610cae565b6103cb565b60405161015f9190610c3f565b60405180910390f35b610170610746565b60405161017d9190610d1d565b60405180910390f35b6101a0600480360381019061019b9190610d38565b61074b565b6040516101ad9190610c93565b60405180910390f35b6101be610793565b6040516101cb9190610c69565b60405180910390f35b6101dc61079b565b6040516101e99190610b29565b60405180910390f35b61020c60048036038101906102079190610be4565b6107d4565b6040516102199190610c3f565b60405180910390f35b61023c60048036038101906102379190610d65565b6109b6565b6040516102499190610c93565b60405180910390f35b6040518060400160405280600b81526020017f73616c6f6d6f6e636f696e00000000000000000000000000000000000000000081525081565b600081600160003373ffffffffffffffffffffffffffffffffffffffff1673ffffffffffffffffffffffffffffffffffffffff16815260200190815260200160002060008573ffffffffffffffffffffffffffffffffffffffff1673ffffffffffffffffffffffffffffffffffffffff168152602001908152602001600020819055508273ffffffffffffffffffffffffffffffffffffffff163373ffffffffffffffffffffffffffffffffffffffff167f8c5be1e5ebec7d5bd14f71427d1e84f3dd0314c0f7b2291e5b200ac8c7c3b9258460405161036b9190610c93565b60405180910390a36001905092915050565b600030905090565b60008060003373ffffffffffffffffffffffffffffffffffffffff1673ffffffffffffffffffffffffffffffffffffffff16815260200190815260200160002054905090565b60008060008573ffffffffffffffffffffffffffffffffffffffff1673ffffffffffffffffffffffffffffffffffffffff1681526020019081526020016000205482111561041857600080fd5b600160008573ffffffffffffffffffffffffffffffffffffffff1673ffffffffffffffffffffffffffffffffffffffff16815260200190815260200160002060003373ffffffffffffffffffffffffffffffffffffffff1673ffffffffffffffffffffffffffffffffffffffff168152602001908152602001600020548211156104a157600080fd5b6104f2826000808773ffffffffffffffffffffffffffffffffffffffff1673ffffffffffffffffffffffffffffffffffffffff16815260200190815260200160002054610a3d90919063ffffffff16565b6000808673ffffffffffffffffffffffffffffffffffffffff1673ffffffffffffffffffffffffffffffffffffffff168152602001908152602001600020819055506105c382600160008773ffffffffffffffffffffffffffffffffffffffff1673ffffffffffffffffffffffffffffffffffffffff16815260200190815260200160002060003373ffffffffffffffffffffffffffffffffffffffff1673ffffffffffffffffffffffffffffffffffffffff16815260200190815260200160002054610a3d90919063ffffffff16565b600160008673ffffffffffffffffffffffffffffffffffffffff1673ffffffffffffffffffffffffffffffffffffffff16815260200190815260200160002060003373ffffffffffffffffffffffffffffffffffffffff1673ffffffffffffffffffffffffffffffffffffffff16815260200190815260200160002081905550610694826000808673ffffffffffffffffffffffffffffffffffffffff1673ffffffffffffffffffffffffffffffffffffffff16815260200190815260200160002054610a6490919063ffffffff16565b6000808573ffffffffffffffffffffffffffffffffffffffff1673ffffffffffffffffffffffffffffffffffffffff168152602001908152602001600020819055508273ffffffffffffffffffffffffffffffffffffffff168473ffffffffffffffffffffffffffffffffffffffff167fddf252ad1be2c89b69c2b068fc378daa952ba7f163c4a11628f55a4df523b3ef846040516107339190610c93565b60405180910390a3600190509392505050565b601281565b60008060008373ffffffffffffffffffffffffffffffffffffffff1673ffffffffffffffffffffffffffffffffffffffff168152602001908152602001600020549050919050565b600033905090565b6040518060400160405280600381526020017f534c4d000000000000000000000000000000000000000000000000000000000081525081565b60008060003373ffffffffffffffffffffffffffffffffffffffff1673ffffffffffffffffffffffffffffffffffffffff1681526020019081526020016000205482111561082157600080fd5b610872826000803373ffffffffffffffffffffffffffffffffffffffff1673ffffffffffffffffffffffffffffffffffffffff16815260200190815260200160002054610a3d90919063ffffffff16565b6000803373ffffffffffffffffffffffffffffffffffffffff1673ffffffffffffffffffffffffffffffffffffffff16815260200190815260200160002081905550610905826000808673ffffffffffffffffffffffffffffffffffffffff1673ffffffffffffffffffffffffffffffffffffffff16815260200190815260200160002054610a6490919063ffffffff16565b6000808573ffffffffffffffffffffffffffffffffffffffff1673ffffffffffffffffffffffffffffffffffffffff168152602001908152602001600020819055508273ffffffffffffffffffffffffffffffffffffffff163373ffffffffffffffffffffffffffffffffffffffff167fddf252ad1be2c89b69c2b068fc378daa952ba7f163c4a11628f55a4df523b3ef846040516109a49190610c93565b60405180910390a36001905092915050565b6000600160008473ffffffffffffffffffffffffffffffffffffffff1673ffffffffffffffffffffffffffffffffffffffff16815260200190815260200160002060008373ffffffffffffffffffffffffffffffffffffffff1673ffffffffffffffffffffffffffffffffffffffff16815260200190815260200160002054905092915050565b600082821115610a5057610a4f610da5565b5b8183610a5c9190610e03565b905092915050565b6000808284610a739190610e37565b905083811015610a8657610a85610da5565b5b8091505092915050565b600081519050919050565b600082825260208201905092915050565b60005b83811015610aca578082015181840152602081019050610aaf565b83811115610ad9576000848401525b50505050565b6000601f19601f8301169050919050565b6000610afb82610a90565b610b058185610a9b565b9350610b15818560208601610aac565b610b1e81610adf565b840191505092915050565b60006020820190508181036000830152610b438184610af0565b905092915050565b600080fd5b600073ffffffffffffffffffffffffffffffffffffffff82169050919050565b6000610b7b82610b50565b9050919050565b610b8b81610b70565b8114610b9657600080fd5b50565b600081359050610ba881610b82565b92915050565b6000819050919050565b610bc181610bae565b8114610bcc57600080fd5b50565b600081359050610bde81610bb8565b92915050565b60008060408385031215610bfb57610bfa610b4b565b5b6000610c0985828601610b99565b9250506020610c1a85828601610bcf565b9150509250929050565b60008115159050919050565b610c3981610c24565b82525050565b6000602082019050610c546000830184610c30565b92915050565b610c6381610b70565b82525050565b6000602082019050610c7e6000830184610c5a565b92915050565b610c8d81610bae565b82525050565b6000602082019050610ca86000830184610c84565b92915050565b600080600060608486031215610cc757610cc6610b4b565b5b6000610cd586828701610b99565b9350506020610ce686828701610b99565b9250506040610cf786828701610bcf565b9150509250925092565b600060ff82169050919050565b610d1781610d01565b82525050565b6000602082019050610d326000830184610d0e565b92915050565b600060208284031215610d4e57610d4d610b4b565b5b6000610d5c84828501610b99565b91505092915050565b60008060408385031215610d7c57610d7b610b4b565b5b6000610d8a85828601610b99565b9250506020610d9b85828601610b99565b9150509250929050565b7f4e487b7100000000000000000000000000000000000000000000000000000000600052600160045260246000fd5b7f4e487b7100000000000000000000000000000000000000000000000000000000600052601160045260246000fd5b6000610e0e82610bae565b9150610e1983610bae565b925082821015610e2c57610e2b610dd4565b5b828203905092915050565b6000610e4282610bae565b9150610e4d83610bae565b9250827fffffffffffffffffffffffffffffffffffffffffffffffffffffffffffffffff03821115610e8257610e81610dd4565b5b82820190509291505056fea264697066735822122073eff9d6fa7df4b0d6d51326d0b9b15faa1646bff828d88a3696a6af13f122d064736f6c634300080b0033",
  "immutableReferences": {},
  "source": "// SPDX-License-Identifier: MIT\npragma solidity >=0.4.22 <0.9.0;\n\n// interface du contract\n\ninterface IERC20 {\nfunction totalSupply() external view returns (uint256);\nfunction balanceOf(address account) external view returns (uint256);\nfunction allowance(address owner, address spender) external view returns (uint256);\nfunction transfer(address recipient, uint256 amount) external returns (bool);\nfunction approve(address spender, uint256 amount) external returns (bool);\nfunction transferFrom(address sender, address recipient, uint256 amount) external returns (bool);\nfunction Ownable() external view returns (address);\nfunction Contractaddress() external view returns (address);\nevent Transfer(address indexed from, address indexed to, uint256 value);\nevent Approval(address indexed owner, address indexed spender, uint256 value);\n}\n\n// debut du contract ER20\ncontract salomoncoin is IERC20 {\nstring public constant name = \"salomoncoin\"; //Le nom de votre token\nstring public constant symbol = \"SLM\"; //Le Symbole\nuint8 public constant decimals = 18; //La divisibilit\nevent Approval(address indexed tokenOwner,bytes32 indexed spender, uint tokens);\nevent Transfer(address indexed from,bytes32 indexed to, uint tokens);\nmapping(address => uint256) balances;\nmapping(address => mapping (address => uint256)) allowed;\nuint256 _totalSupply = 2100000; //La quantit maximal\nusing SafeMath for uint256;\n\nconstructor() {\n    balances[msg.sender] = _totalSupply;\n}\nfunction totalSupply() public override view returns (uint256) {\nreturn balances[msg.sender];\n}\nfunction Ownable() public override view returns (address) {\nreturn msg.sender;\n}\nfunction Contractaddress() public override view returns (address) {\nreturn address(this);\n}\n\nfunction balanceOf(address tokenOwner) public override view returns (uint256) {\nreturn balances[tokenOwner];\n}\n\nfunction transfer(address receiver, uint256 numTokens) public override returns (bool) {\nrequire(numTokens <= balances[msg.sender]);\nbalances[msg.sender] = balances[msg.sender].sub(numTokens);\nbalances[receiver] = balances[receiver].add(numTokens);\nemit Transfer(msg.sender, receiver, numTokens);\nreturn true;\n}\n\nfunction approve(address delegate, uint256 numTokens) public override returns (bool) {\nallowed[msg.sender][delegate] = numTokens;\nemit Approval(msg.sender, delegate, numTokens);\nreturn true;\n}\n\nfunction allowance(address owner, address delegate) public override view returns (uint) {\nreturn allowed[owner][delegate];\n}\n\nfunction transferFrom(address owner, address buyer, uint256 numTokens) public override returns\n(bool) {\nrequire(numTokens <= balances[owner]);\nrequire(numTokens <= allowed[owner][msg.sender]);\nbalances[owner] = balances[owner].sub(numTokens);\nallowed[owner][msg.sender] = allowed[owner][msg.sender].sub(numTokens);\nbalances[buyer] = balances[buyer].add(numTokens);\nemit Transfer(owner, buyer, numTokens);\nreturn true;\n}\n}\nlibrary SafeMath {\nfunction sub(uint256 a, uint256 b) internal pure returns (uint256) {\nassert(b <= a);\nreturn a - b;\n}\n\nfunction add(uint256 a, uint256 b) internal pure returns (uint256) {\nuint256 c = a + b;\nassert(c >= a);\nreturn c;\n}\n}\n\n",
  "sourcePath": "C:\\Users\\Admin\\Desktop\\truffle_project\\contracts\\salomoncoin.sol",
  "compiler": {
    "name": "solc",
    "version": "0.8.11+commit.d7f03943.Emscripten.clang"
  },
  "schemaVersion": "3.4.4",
  "updatedAt": "2022-01-09T22:29:47.884Z",
  "devdoc": {
    "kind": "dev",
    "methods": {},
    "version": 1
  },
  "userdoc": {
    "kind": "user",
    "methods": {},
    "version": 1
  }
}